{
  "address": "0x10e627D7B545542090579461FDf96bd57c88c209",
  "abi": [
    {
      "inputs": [
        {
          "internalType": "string",
          "name": "_initBaseURI",
          "type": "string"
        },
        {
          "internalType": "uint96",
          "name": "_royalityFee",
          "type": "uint96"
        },
        {
          "internalType": "address",
          "name": "_artist",
          "type": "address"
        },
        {
          "internalType": "address",
          "name": "whitelistContract",
          "type": "address"
        }
      ],
      "stateMutability": "nonpayable",
      "type": "constructor"
    },
    {
      "anonymous": false,
      "inputs": [
        {
          "indexed": true,
          "internalType": "address",
          "name": "owner",
          "type": "address"
        },
        {
          "indexed": true,
          "internalType": "address",
          "name": "approved",
          "type": "address"
        },
        {
          "indexed": true,
          "internalType": "uint256",
          "name": "tokenId",
          "type": "uint256"
        }
      ],
      "name": "Approval",
      "type": "event"
    },
    {
      "anonymous": false,
      "inputs": [
        {
          "indexed": true,
          "internalType": "address",
          "name": "owner",
          "type": "address"
        },
        {
          "indexed": true,
          "internalType": "address",
          "name": "operator",
          "type": "address"
        },
        {
          "indexed": false,
          "internalType": "bool",
          "name": "approved",
          "type": "bool"
        }
      ],
      "name": "ApprovalForAll",
      "type": "event"
    },
    {
      "anonymous": false,
      "inputs": [
        {
          "indexed": true,
          "internalType": "address",
          "name": "previousOwner",
          "type": "address"
        },
        {
          "indexed": true,
          "internalType": "address",
          "name": "newOwner",
          "type": "address"
        }
      ],
      "name": "OwnershipTransferred",
      "type": "event"
    },
    {
      "anonymous": false,
      "inputs": [
        {
          "indexed": false,
          "internalType": "address",
          "name": "from",
          "type": "address"
        },
        {
          "indexed": false,
          "internalType": "address",
          "name": "to",
          "type": "address"
        },
        {
          "indexed": false,
          "internalType": "uint256",
          "name": "value",
          "type": "uint256"
        }
      ],
      "name": "Sale",
      "type": "event"
    },
    {
      "anonymous": false,
      "inputs": [
        {
          "indexed": true,
          "internalType": "address",
          "name": "from",
          "type": "address"
        },
        {
          "indexed": true,
          "internalType": "address",
          "name": "to",
          "type": "address"
        },
        {
          "indexed": true,
          "internalType": "uint256",
          "name": "tokenId",
          "type": "uint256"
        }
      ],
      "name": "Transfer",
      "type": "event"
    },
    {
      "stateMutability": "payable",
      "type": "fallback"
    },
    {
      "inputs": [],
      "name": "_paused",
      "outputs": [
        {
          "internalType": "bool",
          "name": "",
          "type": "bool"
        }
      ],
      "stateMutability": "view",
      "type": "function"
    },
    {
      "inputs": [],
      "name": "_price",
      "outputs": [
        {
          "internalType": "uint256",
          "name": "",
          "type": "uint256"
        }
      ],
      "stateMutability": "view",
      "type": "function"
    },
    {
      "inputs": [
        {
          "internalType": "address",
          "name": "to",
          "type": "address"
        },
        {
          "internalType": "uint256",
          "name": "tokenId",
          "type": "uint256"
        }
      ],
      "name": "approve",
      "outputs": [],
      "stateMutability": "nonpayable",
      "type": "function"
    },
    {
      "inputs": [],
      "name": "artist",
      "outputs": [
        {
          "internalType": "address",
          "name": "",
          "type": "address"
        }
      ],
      "stateMutability": "view",
      "type": "function"
    },
    {
      "inputs": [
        {
          "internalType": "address",
          "name": "owner",
          "type": "address"
        }
      ],
      "name": "balanceOf",
      "outputs": [
        {
          "internalType": "uint256",
          "name": "",
          "type": "uint256"
        }
      ],
      "stateMutability": "view",
      "type": "function"
    },
    {
      "inputs": [],
      "name": "baseExtension",
      "outputs": [
        {
          "internalType": "string",
          "name": "",
          "type": "string"
        }
      ],
      "stateMutability": "view",
      "type": "function"
    },
    {
      "inputs": [],
      "name": "contractURI",
      "outputs": [
        {
          "internalType": "string",
          "name": "",
          "type": "string"
        }
      ],
      "stateMutability": "pure",
      "type": "function"
    },
    {
      "inputs": [
        {
          "internalType": "uint256",
          "name": "tokenId",
          "type": "uint256"
        }
      ],
      "name": "getApproved",
      "outputs": [
        {
          "internalType": "address",
          "name": "",
          "type": "address"
        }
      ],
      "stateMutability": "view",
      "type": "function"
    },
    {
      "inputs": [
        {
          "internalType": "address",
          "name": "owner",
          "type": "address"
        },
        {
          "internalType": "address",
          "name": "operator",
          "type": "address"
        }
      ],
      "name": "isApprovedForAll",
      "outputs": [
        {
          "internalType": "bool",
          "name": "",
          "type": "bool"
        }
      ],
      "stateMutability": "view",
      "type": "function"
    },
    {
      "inputs": [],
      "name": "maxTokenIds",
      "outputs": [
        {
          "internalType": "uint256",
          "name": "",
          "type": "uint256"
        }
      ],
      "stateMutability": "view",
      "type": "function"
    },
    {
      "inputs": [],
      "name": "mint",
      "outputs": [],
      "stateMutability": "payable",
      "type": "function"
    },
    {
      "inputs": [],
      "name": "name",
      "outputs": [
        {
          "internalType": "string",
          "name": "",
          "type": "string"
        }
      ],
      "stateMutability": "view",
      "type": "function"
    },
    {
      "inputs": [],
      "name": "owner",
      "outputs": [
        {
          "internalType": "address",
          "name": "",
          "type": "address"
        }
      ],
      "stateMutability": "view",
      "type": "function"
    },
    {
      "inputs": [
        {
          "internalType": "uint256",
          "name": "tokenId",
          "type": "uint256"
        }
      ],
      "name": "ownerOf",
      "outputs": [
        {
          "internalType": "address",
          "name": "",
          "type": "address"
        }
      ],
      "stateMutability": "view",
      "type": "function"
    },
    {
      "inputs": [],
      "name": "presaleEnded",
      "outputs": [
        {
          "internalType": "uint256",
          "name": "",
          "type": "uint256"
        }
      ],
      "stateMutability": "view",
      "type": "function"
    },
    {
      "inputs": [],
      "name": "presaleMint",
      "outputs": [],
      "stateMutability": "payable",
      "type": "function"
    },
    {
      "inputs": [],
      "name": "presaleStarted",
      "outputs": [
        {
          "internalType": "bool",
          "name": "",
          "type": "bool"
        }
      ],
      "stateMutability": "view",
      "type": "function"
    },
    {
      "inputs": [],
      "name": "renounceOwnership",
      "outputs": [],
      "stateMutability": "nonpayable",
      "type": "function"
    },
    {
      "inputs": [],
      "name": "royalityFee",
      "outputs": [
        {
          "internalType": "uint96",
          "name": "",
          "type": "uint96"
        }
      ],
      "stateMutability": "view",
      "type": "function"
    },
    {
      "inputs": [
        {
          "internalType": "uint256",
          "name": "_tokenId",
          "type": "uint256"
        },
        {
          "internalType": "uint256",
          "name": "_salePrice",
          "type": "uint256"
        }
      ],
      "name": "royaltyInfo",
      "outputs": [
        {
          "internalType": "address",
          "name": "",
          "type": "address"
        },
        {
          "internalType": "uint256",
          "name": "",
          "type": "uint256"
        }
      ],
      "stateMutability": "view",
      "type": "function"
    },
    {
      "inputs": [
        {
          "internalType": "address",
          "name": "from",
          "type": "address"
        },
        {
          "internalType": "address",
          "name": "to",
          "type": "address"
        },
        {
          "internalType": "uint256",
          "name": "tokenId",
          "type": "uint256"
        }
      ],
      "name": "safeTransferFrom",
      "outputs": [],
      "stateMutability": "nonpayable",
      "type": "function"
    },
    {
      "inputs": [
        {
          "internalType": "address",
          "name": "from",
          "type": "address"
        },
        {
          "internalType": "address",
          "name": "to",
          "type": "address"
        },
        {
          "internalType": "uint256",
          "name": "tokenId",
          "type": "uint256"
        },
        {
          "internalType": "bytes",
          "name": "_data",
          "type": "bytes"
        }
      ],
      "name": "safeTransferFrom",
      "outputs": [],
      "stateMutability": "nonpayable",
      "type": "function"
    },
    {
      "inputs": [
        {
          "internalType": "address",
          "name": "operator",
          "type": "address"
        },
        {
          "internalType": "bool",
          "name": "approved",
          "type": "bool"
        }
      ],
      "name": "setApprovalForAll",
      "outputs": [],
      "stateMutability": "nonpayable",
      "type": "function"
    },
    {
      "inputs": [
        {
          "internalType": "string",
          "name": "_newBaseURI",
          "type": "string"
        }
      ],
      "name": "setBaseURI",
      "outputs": [],
      "stateMutability": "nonpayable",
      "type": "function"
    },
    {
      "inputs": [
        {
          "internalType": "bool",
          "name": "val",
          "type": "bool"
        }
      ],
      "name": "setPaused",
      "outputs": [],
      "stateMutability": "nonpayable",
      "type": "function"
    },
    {
      "inputs": [
        {
          "internalType": "uint96",
          "name": "_royalityFee",
          "type": "uint96"
        }
      ],
      "name": "setRoyalityFee",
      "outputs": [],
      "stateMutability": "nonpayable",
      "type": "function"
    },
    {
      "inputs": [],
      "name": "startPresale",
      "outputs": [],
      "stateMutability": "nonpayable",
      "type": "function"
    },
    {
      "inputs": [
        {
          "internalType": "bytes4",
          "name": "interfaceId",
          "type": "bytes4"
        }
      ],
      "name": "supportsInterface",
      "outputs": [
        {
          "internalType": "bool",
          "name": "",
          "type": "bool"
        }
      ],
      "stateMutability": "view",
      "type": "function"
    },
    {
      "inputs": [],
      "name": "symbol",
      "outputs": [
        {
          "internalType": "string",
          "name": "",
          "type": "string"
        }
      ],
      "stateMutability": "view",
      "type": "function"
    },
    {
      "inputs": [
        {
          "internalType": "uint256",
          "name": "index",
          "type": "uint256"
        }
      ],
      "name": "tokenByIndex",
      "outputs": [
        {
          "internalType": "uint256",
          "name": "",
          "type": "uint256"
        }
      ],
      "stateMutability": "view",
      "type": "function"
    },
    {
      "inputs": [],
      "name": "tokenIds",
      "outputs": [
        {
          "internalType": "uint256",
          "name": "",
          "type": "uint256"
        }
      ],
      "stateMutability": "view",
      "type": "function"
    },
    {
      "inputs": [
        {
          "internalType": "address",
          "name": "owner",
          "type": "address"
        },
        {
          "internalType": "uint256",
          "name": "index",
          "type": "uint256"
        }
      ],
      "name": "tokenOfOwnerByIndex",
      "outputs": [
        {
          "internalType": "uint256",
          "name": "",
          "type": "uint256"
        }
      ],
      "stateMutability": "view",
      "type": "function"
    },
    {
      "inputs": [
        {
          "internalType": "uint256",
          "name": "tokenId",
          "type": "uint256"
        }
      ],
      "name": "tokenURI",
      "outputs": [
        {
          "internalType": "string",
          "name": "",
          "type": "string"
        }
      ],
      "stateMutability": "view",
      "type": "function"
    },
    {
      "inputs": [],
      "name": "totalSupply",
      "outputs": [
        {
          "internalType": "uint256",
          "name": "",
          "type": "uint256"
        }
      ],
      "stateMutability": "view",
      "type": "function"
    },
    {
      "inputs": [
        {
          "internalType": "address",
          "name": "from",
          "type": "address"
        },
        {
          "internalType": "address",
          "name": "to",
          "type": "address"
        },
        {
          "internalType": "uint256",
          "name": "tokenId",
          "type": "uint256"
        }
      ],
      "name": "transferFrom",
      "outputs": [],
      "stateMutability": "nonpayable",
      "type": "function"
    },
    {
      "inputs": [
        {
          "internalType": "address",
          "name": "newOwner",
          "type": "address"
        }
      ],
      "name": "transferOwnership",
      "outputs": [],
      "stateMutability": "nonpayable",
      "type": "function"
    },
    {
      "inputs": [],
      "name": "withdraw",
      "outputs": [],
      "stateMutability": "nonpayable",
      "type": "function"
    },
    {
      "stateMutability": "payable",
      "type": "receive"
    }
  ],
  "transactionHash": "0xb8316078bb28c95033f3989c0dc53825da37a8edca0f9b9fb00a477d1d40ff47",
  "args": [
    "ipfs://QmTpncDc9C9NZwKEtpiZmC7NftCwb3ybV7xeapC6yb1Z1s/",
    250,
    "0x2381776d931953e142e51620944bDA170eD9C846",
    "0x1e3c83FA89C426221103F3f38B779c941B46c860"
  ],
  "numDeployments": 1,
  "solcInputHash": "94bbd2d2b0e1ea841d5b6f58d18d916f",
  "bytecode": "0x60806040526040518060400160405280600581526020017f2e6a736f6e000000000000000000000000000000000000000000000000000000815250600d90816200004a9190620007f5565b50662386f26fc10000601055600a6012553480156200006857600080fd5b5060405162005ec538038062005ec583398181016040528101906200008e919062000aee565b6040518060400160405280600281526020017f49470000000000000000000000000000000000000000000000000000000000008152506040518060400160405280600c81526020017f4947436f6c6c656374696f6e000000000000000000000000000000000000000081525081600090816200010b9190620007f5565b5080600190816200011d9190620007f5565b50505062000140620001346200022060201b60201c565b6200022860201b60201c565b6200015184620002ee60201b60201c565b82600f60146101000a8154816bffffffffffffffffffffffff02191690836bffffffffffffffffffffffff16021790555081600f60006101000a81548173ffffffffffffffffffffffffffffffffffffffff021916908373ffffffffffffffffffffffffffffffffffffffff160217905550620001d582846200031360201b60201c565b80601460006101000a81548173ffffffffffffffffffffffffffffffffffffffff021916908373ffffffffffffffffffffffffffffffffffffffff1602179055505050505062000d0c565b600033905090565b6000600c60009054906101000a900473ffffffffffffffffffffffffffffffffffffffff16905081600c60006101000a81548173ffffffffffffffffffffffffffffffffffffffff021916908373ffffffffffffffffffffffffffffffffffffffff1602179055508173ffffffffffffffffffffffffffffffffffffffff168173ffffffffffffffffffffffffffffffffffffffff167f8be0079c531659141344cd1fd0a4f28419497f9722a3daafe3b4186f6b6457e060405160405180910390a35050565b620002fe620004b660201b60201c565b80600e90816200030f9190620007f5565b5050565b620003236200054760201b60201c565b6bffffffffffffffffffffffff16816bffffffffffffffffffffffff16111562000384576040517f08c379a00000000000000000000000000000000000000000000000000000000081526004016200037b9062000c06565b60405180910390fd5b600073ffffffffffffffffffffffffffffffffffffffff168273ffffffffffffffffffffffffffffffffffffffff1603620003f6576040517f08c379a0000000000000000000000000000000000000000000000000000000008152600401620003ed9062000c78565b60405180910390fd5b60405180604001604052808373ffffffffffffffffffffffffffffffffffffffff168152602001826bffffffffffffffffffffffff16815250600a60008201518160000160006101000a81548173ffffffffffffffffffffffffffffffffffffffff021916908373ffffffffffffffffffffffffffffffffffffffff16021790555060208201518160000160146101000a8154816bffffffffffffffffffffffff02191690836bffffffffffffffffffffffff1602179055509050505050565b620004c66200022060201b60201c565b73ffffffffffffffffffffffffffffffffffffffff16620004ec6200055160201b60201c565b73ffffffffffffffffffffffffffffffffffffffff161462000545576040517f08c379a00000000000000000000000000000000000000000000000000000000081526004016200053c9062000cea565b60405180910390fd5b565b6000612710905090565b6000600c60009054906101000a900473ffffffffffffffffffffffffffffffffffffffff16905090565b600081519050919050565b7f4e487b7100000000000000000000000000000000000000000000000000000000600052604160045260246000fd5b7f4e487b7100000000000000000000000000000000000000000000000000000000600052602260045260246000fd5b60006002820490506001821680620005fd57607f821691505b602082108103620006135762000612620005b5565b5b50919050565b60008190508160005260206000209050919050565b60006020601f8301049050919050565b600082821b905092915050565b6000600883026200067d7fffffffffffffffffffffffffffffffffffffffffffffffffffffffffffffffff826200063e565b6200068986836200063e565b95508019841693508086168417925050509392505050565b6000819050919050565b6000819050919050565b6000620006d6620006d0620006ca84620006a1565b620006ab565b620006a1565b9050919050565b6000819050919050565b620006f283620006b5565b6200070a6200070182620006dd565b8484546200064b565b825550505050565b600090565b6200072162000712565b6200072e818484620006e7565b505050565b5b8181101562000756576200074a60008262000717565b60018101905062000734565b5050565b601f821115620007a5576200076f8162000619565b6200077a846200062e565b810160208510156200078a578190505b620007a262000799856200062e565b83018262000733565b50505b505050565b600082821c905092915050565b6000620007ca60001984600802620007aa565b1980831691505092915050565b6000620007e58383620007b7565b9150826002028217905092915050565b62000800826200057b565b67ffffffffffffffff8111156200081c576200081b62000586565b5b620008288254620005e4565b620008358282856200075a565b600060209050601f8311600181146200086d576000841562000858578287015190505b620008648582620007d7565b865550620008d4565b601f1984166200087d8662000619565b60005b82811015620008a75784890151825560018201915060208501945060208101905062000880565b86831015620008c75784890151620008c3601f891682620007b7565b8355505b6001600288020188555050505b505050505050565b6000604051905090565b600080fd5b600080fd5b600080fd5b600080fd5b6000601f19601f8301169050919050565b6200091682620008fa565b810181811067ffffffffffffffff8211171562000938576200093762000586565b5b80604052505050565b60006200094d620008dc565b90506200095b82826200090b565b919050565b600067ffffffffffffffff8211156200097e576200097d62000586565b5b6200098982620008fa565b9050602081019050919050565b60005b83811015620009b657808201518184015260208101905062000999565b60008484015250505050565b6000620009d9620009d38462000960565b62000941565b905082815260208101848484011115620009f857620009f7620008f5565b5b62000a0584828562000996565b509392505050565b600082601f83011262000a255762000a24620008f0565b5b815162000a37848260208601620009c2565b91505092915050565b60006bffffffffffffffffffffffff82169050919050565b62000a638162000a40565b811462000a6f57600080fd5b50565b60008151905062000a838162000a58565b92915050565b600073ffffffffffffffffffffffffffffffffffffffff82169050919050565b600062000ab68262000a89565b9050919050565b62000ac88162000aa9565b811462000ad457600080fd5b50565b60008151905062000ae88162000abd565b92915050565b6000806000806080858703121562000b0b5762000b0a620008e6565b5b600085015167ffffffffffffffff81111562000b2c5762000b2b620008eb565b5b62000b3a8782880162000a0d565b945050602062000b4d8782880162000a72565b935050604062000b608782880162000ad7565b925050606062000b738782880162000ad7565b91505092959194509250565b600082825260208201905092915050565b7f455243323938313a20726f79616c7479206665652077696c6c2065786365656460008201527f2073616c65507269636500000000000000000000000000000000000000000000602082015250565b600062000bee602a8362000b7f565b915062000bfb8262000b90565b604082019050919050565b6000602082019050818103600083015262000c218162000bdf565b9050919050565b7f455243323938313a20696e76616c696420726563656976657200000000000000600082015250565b600062000c6060198362000b7f565b915062000c6d8262000c28565b602082019050919050565b6000602082019050818103600083015262000c938162000c51565b9050919050565b7f4f776e61626c653a2063616c6c6572206973206e6f7420746865206f776e6572600082015250565b600062000cd260208362000b7f565b915062000cdf8262000c9a565b602082019050919050565b6000602082019050818103600083015262000d058162000cc3565b9050919050565b6151a98062000d1c6000396000f3fe60806040526004361061021e5760003560e01c80634f6ccce7116101235780638da5cb5b116100ab578063c87b56dd1161006f578063c87b56dd14610778578063e580b2b0146107b5578063e8a3d485146107e0578063e985e9c51461080b578063f2fde38b1461084857610225565b80638da5cb5b146106a557806395d89b41146106d0578063a22cb465146106fb578063b88d4fde14610724578063c66828621461074d57610225565b80635f769621116100f25780635f769621146105be5780636352211e146105e957806370a0823114610626578063714cff5614610663578063715018a61461068e57610225565b80634f6ccce714610525578063530284021461056257806355f804b31461058b57806359533d6c146105b457610225565b806318160ddd116101a65780632f745c59116101755780632f745c5914610452578063326bb4ad1461048f5780633ccfd60b146104ba57806342842e0e146104d157806343bc1612146104fa57610225565b806318160ddd14610395578063235b6ea1146103c057806323b872dd146103eb5780632a55205a1461041457610225565b8063081812fc116101ed578063081812fc146102d1578063095ea7b31461030e5780631249c58b1461033757806316c38b3c1461034157806316c61ccc1461036a57610225565b806301ffc9a71461022757806304549d6f1461026457806304c98b2b1461028f57806306fdde03146102a657610225565b3661022557005b005b34801561023357600080fd5b5061024e600480360381019061024991906134d4565b610871565b60405161025b919061351c565b60405180910390f35b34801561027057600080fd5b50610279610883565b604051610286919061351c565b60405180910390f35b34801561029b57600080fd5b506102a4610894565b005b3480156102b257600080fd5b506102bb6108cc565b6040516102c891906135c7565b60405180910390f35b3480156102dd57600080fd5b506102f860048036038101906102f3919061361f565b61095e565b604051610305919061368d565b60405180910390f35b34801561031a57600080fd5b50610335600480360381019061033091906136d4565b6109a4565b005b61033f610abb565b005b34801561034d57600080fd5b5061036860048036038101906103639190613740565b610d1c565b005b34801561037657600080fd5b5061037f610d41565b60405161038c919061351c565b60405180910390f35b3480156103a157600080fd5b506103aa610d54565b6040516103b7919061377c565b60405180910390f35b3480156103cc57600080fd5b506103d5610d61565b6040516103e2919061377c565b60405180910390f35b3480156103f757600080fd5b50610412600480360381019061040d9190613797565b610d67565b005b34801561042057600080fd5b5061043b600480360381019061043691906137ea565b610dc7565b60405161044992919061382a565b60405180910390f35b34801561045e57600080fd5b50610479600480360381019061047491906136d4565b610fb1565b604051610486919061377c565b60405180910390f35b34801561049b57600080fd5b506104a4611056565b6040516104b1919061387a565b60405180910390f35b3480156104c657600080fd5b506104cf611074565b005b3480156104dd57600080fd5b506104f860048036038101906104f39190613797565b61113e565b005b34801561050657600080fd5b5061050f61115e565b60405161051c919061368d565b60405180910390f35b34801561053157600080fd5b5061054c6004803603810190610547919061361f565b611184565b604051610559919061377c565b60405180910390f35b34801561056e57600080fd5b50610589600480360381019061058491906138c1565b6111f5565b005b34801561059757600080fd5b506105b260048036038101906105ad9190613a23565b611231565b005b6105bc61124c565b005b3480156105ca57600080fd5b506105d36115cc565b6040516105e0919061377c565b60405180910390f35b3480156105f557600080fd5b50610610600480360381019061060b919061361f565b6115d2565b60405161061d919061368d565b60405180910390f35b34801561063257600080fd5b5061064d60048036038101906106489190613a6c565b611658565b60405161065a919061377c565b60405180910390f35b34801561066f57600080fd5b5061067861170f565b604051610685919061377c565b60405180910390f35b34801561069a57600080fd5b506106a3611715565b005b3480156106b157600080fd5b506106ba611729565b6040516106c7919061368d565b60405180910390f35b3480156106dc57600080fd5b506106e5611753565b6040516106f291906135c7565b60405180910390f35b34801561070757600080fd5b50610722600480360381019061071d9190613a99565b6117e5565b005b34801561073057600080fd5b5061074b60048036038101906107469190613b7a565b6117fb565b005b34801561075957600080fd5b5061076261185d565b60405161076f91906135c7565b60405180910390f35b34801561078457600080fd5b5061079f600480360381019061079a919061361f565b6118eb565b6040516107ac91906135c7565b60405180910390f35b3480156107c157600080fd5b506107ca611995565b6040516107d7919061377c565b60405180910390f35b3480156107ec57600080fd5b506107f561199b565b60405161080291906135c7565b60405180910390f35b34801561081757600080fd5b50610832600480360381019061082d9190613bfd565b6119bb565b60405161083f919061351c565b60405180910390f35b34801561085457600080fd5b5061086f600480360381019061086a9190613a6c565b611a4f565b005b600061087c82611ad2565b9050919050565b60148054906101000a900460ff1681565b61089c611b4c565b60016014806101000a81548160ff02191690831515021790555061012c426108c49190613c6c565b601581905550565b6060600080546108db90613ccf565b80601f016020809104026020016040519081016040528092919081815260200182805461090790613ccf565b80156109545780601f1061092957610100808354040283529160200191610954565b820191906000526020600020905b81548152906001019060200180831161093757829003601f168201915b5050505050905090565b600061096982611bca565b6004600083815260200190815260200160002060009054906101000a900473ffffffffffffffffffffffffffffffffffffffff169050919050565b60006109af826115d2565b90508073ffffffffffffffffffffffffffffffffffffffff168373ffffffffffffffffffffffffffffffffffffffff1603610a1f576040517f08c379a0000000000000000000000000000000000000000000000000000000008152600401610a1690613d72565b60405180910390fd5b8073ffffffffffffffffffffffffffffffffffffffff16610a3e611c15565b73ffffffffffffffffffffffffffffffffffffffff161480610a6d5750610a6c81610a67611c15565b6119bb565b5b610aac576040517f08c379a0000000000000000000000000000000000000000000000000000000008152600401610aa390613e04565b60405180910390fd5b610ab68383611c1d565b505050565b601160009054906101000a900460ff1615610b0b576040517f08c379a0000000000000000000000000000000000000000000000000000000008152600401610b0290613e70565b60405180910390fd5b60148054906101000a900460ff168015610b2757506015544210155b610b66576040517f08c379a0000000000000000000000000000000000000000000000000000000008152600401610b5d90613edc565b60405180910390fd5b60125460135410610bac576040517f08c379a0000000000000000000000000000000000000000000000000000000008152600401610ba390613f6e565b60405180910390fd5b600160136000828254610bbf9190613c6c565b92505081905550610bce611729565b73ffffffffffffffffffffffffffffffffffffffff163373ffffffffffffffffffffffffffffffffffffffff1614610ce757601054341015610c0f57600080fd5b60006064600f60149054906101000a90046bffffffffffffffffffffffff166bffffffffffffffffffffffff1634610c479190613f8e565b610c519190613fff565b9050610c5c81611cd6565b6000610c66611729565b73ffffffffffffffffffffffffffffffffffffffff168234610c889190614030565b604051610c9490614095565b60006040518083038185875af1925050503d8060008114610cd1576040519150601f19603f3d011682016040523d82523d6000602084013e610cd6565b606091505b5050905080610ce457600080fd5b50505b610cf333601354611d72565b610d1a60135433600f60149054906101000a90046bffffffffffffffffffffffff16611d90565b565b610d24611b4c565b80601160006101000a81548160ff02191690831515021790555050565b601160009054906101000a900460ff1681565b6000600880549050905090565b60105481565b610d78610d72611c15565b82611f37565b610db7576040517f08c379a0000000000000000000000000000000000000000000000000000000008152600401610dae9061411c565b60405180910390fd5b610dc2838383611fcc565b505050565b6000806000600b60008681526020019081526020016000206040518060400160405290816000820160009054906101000a900473ffffffffffffffffffffffffffffffffffffffff1673ffffffffffffffffffffffffffffffffffffffff1673ffffffffffffffffffffffffffffffffffffffff1681526020016000820160149054906101000a90046bffffffffffffffffffffffff166bffffffffffffffffffffffff166bffffffffffffffffffffffff16815250509050600073ffffffffffffffffffffffffffffffffffffffff16816000015173ffffffffffffffffffffffffffffffffffffffff1603610f5c57600a6040518060400160405290816000820160009054906101000a900473ffffffffffffffffffffffffffffffffffffffff1673ffffffffffffffffffffffffffffffffffffffff1673ffffffffffffffffffffffffffffffffffffffff1681526020016000820160149054906101000a90046bffffffffffffffffffffffff166bffffffffffffffffffffffff166bffffffffffffffffffffffff168152505090505b6000610f666122c5565b6bffffffffffffffffffffffff1682602001516bffffffffffffffffffffffff1686610f929190613f8e565b610f9c9190613fff565b90508160000151819350935050509250929050565b6000610fbc83611658565b8210610ffd576040517f08c379a0000000000000000000000000000000000000000000000000000000008152600401610ff4906141ae565b60405180910390fd5b600660008473ffffffffffffffffffffffffffffffffffffffff1673ffffffffffffffffffffffffffffffffffffffff168152602001908152602001600020600083815260200190815260200160002054905092915050565b600f60149054906101000a90046bffffffffffffffffffffffff1681565b61107c611b4c565b6000611086611729565b9050600047905060008273ffffffffffffffffffffffffffffffffffffffff16826040516110b390614095565b60006040518083038185875af1925050503d80600081146110f0576040519150601f19603f3d011682016040523d82523d6000602084013e6110f5565b606091505b5050905080611139576040517f08c379a00000000000000000000000000000000000000000000000000000000081526004016111309061421a565b60405180910390fd5b505050565b611159838383604051806020016040528060008152506122cf565b505050565b600f60009054906101000a900473ffffffffffffffffffffffffffffffffffffffff1681565b600061118e610d54565b82106111cf576040517f08c379a00000000000000000000000000000000000000000000000000000000081526004016111c6906142ac565b60405180910390fd5b600882815481106111e3576111e26142cc565b5b90600052602060002001549050919050565b6111fd611b4c565b80600f60146101000a8154816bffffffffffffffffffffffff02191690836bffffffffffffffffffffffff16021790555050565b611239611b4c565b80600e908161124891906144a7565b5050565b601160009054906101000a900460ff161561129c576040517f08c379a000000000000000000000000000000000000000000000000000000000815260040161129390613e70565b60405180910390fd5b60148054906101000a900460ff1680156112b7575060155442105b6112f6576040517f08c379a00000000000000000000000000000000000000000000000000000000081526004016112ed906145c5565b60405180910390fd5b601460009054906101000a900473ffffffffffffffffffffffffffffffffffffffff1673ffffffffffffffffffffffffffffffffffffffff166306c933d8336040518263ffffffff1660e01b8152600401611351919061368d565b602060405180830381865afa15801561136e573d6000803e3d6000fd5b505050506040513d601f19601f8201168201806040525081019061139291906145fa565b6113d1576040517f08c379a00000000000000000000000000000000000000000000000000000000081526004016113c890614673565b60405180910390fd5b60125460135410611417576040517f08c379a000000000000000000000000000000000000000000000000000000000815260040161140e90614705565b60405180910390fd5b60105434101561145c576040517f08c379a000000000000000000000000000000000000000000000000000000000815260040161145390614771565b60405180910390fd5b60016013600082825461146f9190613c6c565b9250508190555061147e611729565b73ffffffffffffffffffffffffffffffffffffffff163373ffffffffffffffffffffffffffffffffffffffff1614611597576010543410156114bf57600080fd5b60006064600f60149054906101000a90046bffffffffffffffffffffffff166bffffffffffffffffffffffff16346114f79190613f8e565b6115019190613fff565b905061150c81611cd6565b6000611516611729565b73ffffffffffffffffffffffffffffffffffffffff1682346115389190614030565b60405161154490614095565b60006040518083038185875af1925050503d8060008114611581576040519150601f19603f3d011682016040523d82523d6000602084013e611586565b606091505b505090508061159457600080fd5b50505b6115a333601354611d72565b6115ca60135433600f60149054906101000a90046bffffffffffffffffffffffff16611d90565b565b60125481565b6000806115de83612331565b9050600073ffffffffffffffffffffffffffffffffffffffff168173ffffffffffffffffffffffffffffffffffffffff160361164f576040517f08c379a0000000000000000000000000000000000000000000000000000000008152600401611646906147dd565b60405180910390fd5b80915050919050565b60008073ffffffffffffffffffffffffffffffffffffffff168273ffffffffffffffffffffffffffffffffffffffff16036116c8576040517f08c379a00000000000000000000000000000000000000000000000000000000081526004016116bf9061486f565b60405180910390fd5b600360008373ffffffffffffffffffffffffffffffffffffffff1673ffffffffffffffffffffffffffffffffffffffff168152602001908152602001600020549050919050565b60135481565b61171d611b4c565b611727600061236e565b565b6000600c60009054906101000a900473ffffffffffffffffffffffffffffffffffffffff16905090565b60606001805461176290613ccf565b80601f016020809104026020016040519081016040528092919081815260200182805461178e90613ccf565b80156117db5780601f106117b0576101008083540402835291602001916117db565b820191906000526020600020905b8154815290600101906020018083116117be57829003601f168201915b5050505050905090565b6117f76117f0611c15565b8383612434565b5050565b61180c611806611c15565b83611f37565b61184b576040517f08c379a00000000000000000000000000000000000000000000000000000000081526004016118429061411c565b60405180910390fd5b611857848484846125a0565b50505050565b600d805461186a90613ccf565b80601f016020809104026020016040519081016040528092919081815260200182805461189690613ccf565b80156118e35780601f106118b8576101008083540402835291602001916118e3565b820191906000526020600020905b8154815290600101906020018083116118c657829003601f168201915b505050505081565b60606118f6826125fc565b611935576040517f08c379a000000000000000000000000000000000000000000000000000000000815260040161192c90614901565b60405180910390fd5b600061193f61263d565b9050600081511161195f576040518060200160405280600081525061198d565b80611969846126cf565b600d60405160200161197d939291906149e0565b6040516020818303038152906040525b915050919050565b60155481565b606060405180606001604052806036815260200161513e60369139905090565b6000600560008473ffffffffffffffffffffffffffffffffffffffff1673ffffffffffffffffffffffffffffffffffffffff16815260200190815260200160002060008373ffffffffffffffffffffffffffffffffffffffff1673ffffffffffffffffffffffffffffffffffffffff16815260200190815260200160002060009054906101000a900460ff16905092915050565b611a57611b4c565b600073ffffffffffffffffffffffffffffffffffffffff168173ffffffffffffffffffffffffffffffffffffffff1603611ac6576040517f08c379a0000000000000000000000000000000000000000000000000000000008152600401611abd90614a83565b60405180910390fd5b611acf8161236e565b50565b60007f2a55205a000000000000000000000000000000000000000000000000000000007bffffffffffffffffffffffffffffffffffffffffffffffffffffffff1916827bffffffffffffffffffffffffffffffffffffffffffffffffffffffff19161480611b455750611b448261279d565b5b9050919050565b611b54611c15565b73ffffffffffffffffffffffffffffffffffffffff16611b72611729565b73ffffffffffffffffffffffffffffffffffffffff1614611bc8576040517f08c379a0000000000000000000000000000000000000000000000000000000008152600401611bbf90614aef565b60405180910390fd5b565b611bd3816125fc565b611c12576040517f08c379a0000000000000000000000000000000000000000000000000000000008152600401611c09906147dd565b60405180910390fd5b50565b600033905090565b816004600083815260200190815260200160002060006101000a81548173ffffffffffffffffffffffffffffffffffffffff021916908373ffffffffffffffffffffffffffffffffffffffff160217905550808273ffffffffffffffffffffffffffffffffffffffff16611c90836115d2565b73ffffffffffffffffffffffffffffffffffffffff167f8c5be1e5ebec7d5bd14f71427d1e84f3dd0314c0f7b2291e5b200ac8c7c3b92560405160405180910390a45050565b6000600f60009054906101000a900473ffffffffffffffffffffffffffffffffffffffff1673ffffffffffffffffffffffffffffffffffffffff1682604051611d1e90614095565b60006040518083038185875af1925050503d8060008114611d5b576040519150601f19603f3d011682016040523d82523d6000602084013e611d60565b606091505b5050905080611d6e57600080fd5b5050565b611d8c828260405180602001604052806000815250612817565b5050565b611d986122c5565b6bffffffffffffffffffffffff16816bffffffffffffffffffffffff161115611df6576040517f08c379a0000000000000000000000000000000000000000000000000000000008152600401611ded90614b81565b60405180910390fd5b600073ffffffffffffffffffffffffffffffffffffffff168273ffffffffffffffffffffffffffffffffffffffff1603611e65576040517f08c379a0000000000000000000000000000000000000000000000000000000008152600401611e5c90614bed565b60405180910390fd5b60405180604001604052808373ffffffffffffffffffffffffffffffffffffffff168152602001826bffffffffffffffffffffffff16815250600b600085815260200190815260200160002060008201518160000160006101000a81548173ffffffffffffffffffffffffffffffffffffffff021916908373ffffffffffffffffffffffffffffffffffffffff16021790555060208201518160000160146101000a8154816bffffffffffffffffffffffff02191690836bffffffffffffffffffffffff160217905550905050505050565b600080611f43836115d2565b90508073ffffffffffffffffffffffffffffffffffffffff168473ffffffffffffffffffffffffffffffffffffffff161480611f855750611f8481856119bb565b5b80611fc357508373ffffffffffffffffffffffffffffffffffffffff16611fab8461095e565b73ffffffffffffffffffffffffffffffffffffffff16145b91505092915050565b8273ffffffffffffffffffffffffffffffffffffffff16611fec826115d2565b73ffffffffffffffffffffffffffffffffffffffff1614612042576040517f08c379a000000000000000000000000000000000000000000000000000000000815260040161203990614c7f565b60405180910390fd5b600073ffffffffffffffffffffffffffffffffffffffff168273ffffffffffffffffffffffffffffffffffffffff16036120b1576040517f08c379a00000000000000000000000000000000000000000000000000000000081526004016120a890614d11565b60405180910390fd5b6120be8383836001612872565b8273ffffffffffffffffffffffffffffffffffffffff166120de826115d2565b73ffffffffffffffffffffffffffffffffffffffff1614612134576040517f08c379a000000000000000000000000000000000000000000000000000000000815260040161212b90614c7f565b60405180910390fd5b6004600082815260200190815260200160002060006101000a81549073ffffffffffffffffffffffffffffffffffffffff02191690556001600360008573ffffffffffffffffffffffffffffffffffffffff1673ffffffffffffffffffffffffffffffffffffffff168152602001908152602001600020600082825403925050819055506001600360008473ffffffffffffffffffffffffffffffffffffffff1673ffffffffffffffffffffffffffffffffffffffff16815260200190815260200160002060008282540192505081905550816002600083815260200190815260200160002060006101000a81548173ffffffffffffffffffffffffffffffffffffffff021916908373ffffffffffffffffffffffffffffffffffffffff160217905550808273ffffffffffffffffffffffffffffffffffffffff168473ffffffffffffffffffffffffffffffffffffffff167fddf252ad1be2c89b69c2b068fc378daa952ba7f163c4a11628f55a4df523b3ef60405160405180910390a46122c083838360016129d0565b505050565b6000612710905090565b6122e06122da611c15565b83611f37565b61231f576040517f08c379a000000000000000000000000000000000000000000000000000000000815260040161231690614da3565b60405180910390fd5b61232b848484846125a0565b50505050565b60006002600083815260200190815260200160002060009054906101000a900473ffffffffffffffffffffffffffffffffffffffff169050919050565b6000600c60009054906101000a900473ffffffffffffffffffffffffffffffffffffffff16905081600c60006101000a81548173ffffffffffffffffffffffffffffffffffffffff021916908373ffffffffffffffffffffffffffffffffffffffff1602179055508173ffffffffffffffffffffffffffffffffffffffff168173ffffffffffffffffffffffffffffffffffffffff167f8be0079c531659141344cd1fd0a4f28419497f9722a3daafe3b4186f6b6457e060405160405180910390a35050565b8173ffffffffffffffffffffffffffffffffffffffff168373ffffffffffffffffffffffffffffffffffffffff16036124a2576040517f08c379a000000000000000000000000000000000000000000000000000000000815260040161249990614e0f565b60405180910390fd5b80600560008573ffffffffffffffffffffffffffffffffffffffff1673ffffffffffffffffffffffffffffffffffffffff16815260200190815260200160002060008473ffffffffffffffffffffffffffffffffffffffff1673ffffffffffffffffffffffffffffffffffffffff16815260200190815260200160002060006101000a81548160ff0219169083151502179055508173ffffffffffffffffffffffffffffffffffffffff168373ffffffffffffffffffffffffffffffffffffffff167f17307eab39ab6107e8899845ad3d59bd9653f200f220920489ca2b5937696c3183604051612593919061351c565b60405180910390a3505050565b6125ab848484611fcc565b6125b7848484846129d6565b6125f6576040517f08c379a00000000000000000000000000000000000000000000000000000000081526004016125ed90614ea1565b60405180910390fd5b50505050565b60008073ffffffffffffffffffffffffffffffffffffffff1661261e83612331565b73ffffffffffffffffffffffffffffffffffffffff1614159050919050565b6060600e805461264c90613ccf565b80601f016020809104026020016040519081016040528092919081815260200182805461267890613ccf565b80156126c55780601f1061269a576101008083540402835291602001916126c5565b820191906000526020600020905b8154815290600101906020018083116126a857829003601f168201915b5050505050905090565b6060600060016126de84612b5d565b01905060008167ffffffffffffffff8111156126fd576126fc6138f8565b5b6040519080825280601f01601f19166020018201604052801561272f5781602001600182028036833780820191505090505b509050600082602001820190505b600115612792578080600190039150507f3031323334353637383961626364656600000000000000000000000000000000600a86061a8153600a858161278657612785613fd0565b5b0494506000850361273d575b819350505050919050565b60007f780e9d63000000000000000000000000000000000000000000000000000000007bffffffffffffffffffffffffffffffffffffffffffffffffffffffff1916827bffffffffffffffffffffffffffffffffffffffffffffffffffffffff19161480612810575061280f82612cb0565b5b9050919050565b6128218383612d92565b61282e60008484846129d6565b61286d576040517f08c379a000000000000000000000000000000000000000000000000000000000815260040161286490614ea1565b60405180910390fd5b505050565b61287e84848484612faf565b60018111156128c2576040517f08c379a00000000000000000000000000000000000000000000000000000000081526004016128b990614f33565b60405180910390fd5b6000829050600073ffffffffffffffffffffffffffffffffffffffff168573ffffffffffffffffffffffffffffffffffffffff160361290957612904816130d5565b612948565b8373ffffffffffffffffffffffffffffffffffffffff168573ffffffffffffffffffffffffffffffffffffffff161461294757612946858261311e565b5b5b600073ffffffffffffffffffffffffffffffffffffffff168473ffffffffffffffffffffffffffffffffffffffff160361298a576129858161328b565b6129c9565b8473ffffffffffffffffffffffffffffffffffffffff168473ffffffffffffffffffffffffffffffffffffffff16146129c8576129c7848261335c565b5b5b5050505050565b50505050565b60006129f78473ffffffffffffffffffffffffffffffffffffffff166133db565b15612b50578373ffffffffffffffffffffffffffffffffffffffff1663150b7a02612a20611c15565b8786866040518563ffffffff1660e01b8152600401612a429493929190614fa8565b6020604051808303816000875af1925050508015612a7e57506040513d601f19601f82011682018060405250810190612a7b9190615009565b60015b612b00573d8060008114612aae576040519150601f19603f3d011682016040523d82523d6000602084013e612ab3565b606091505b506000815103612af8576040517f08c379a0000000000000000000000000000000000000000000000000000000008152600401612aef90614ea1565b60405180910390fd5b805181602001fd5b63150b7a0260e01b7bffffffffffffffffffffffffffffffffffffffffffffffffffffffff1916817bffffffffffffffffffffffffffffffffffffffffffffffffffffffff191614915050612b55565b600190505b949350505050565b600080600090507a184f03e93ff9f4daa797ed6e38ed64bf6a1f0100000000000000008310612bbb577a184f03e93ff9f4daa797ed6e38ed64bf6a1f0100000000000000008381612bb157612bb0613fd0565b5b0492506040810190505b6d04ee2d6d415b85acef81000000008310612bf8576d04ee2d6d415b85acef81000000008381612bee57612bed613fd0565b5b0492506020810190505b662386f26fc100008310612c2757662386f26fc100008381612c1d57612c1c613fd0565b5b0492506010810190505b6305f5e1008310612c50576305f5e1008381612c4657612c45613fd0565b5b0492506008810190505b6127108310612c75576127108381612c6b57612c6a613fd0565b5b0492506004810190505b60648310612c985760648381612c8e57612c8d613fd0565b5b0492506002810190505b600a8310612ca7576001810190505b80915050919050565b60007f80ac58cd000000000000000000000000000000000000000000000000000000007bffffffffffffffffffffffffffffffffffffffffffffffffffffffff1916827bffffffffffffffffffffffffffffffffffffffffffffffffffffffff19161480612d7b57507f5b5e139f000000000000000000000000000000000000000000000000000000007bffffffffffffffffffffffffffffffffffffffffffffffffffffffff1916827bffffffffffffffffffffffffffffffffffffffffffffffffffffffff1916145b80612d8b5750612d8a826133fe565b5b9050919050565b600073ffffffffffffffffffffffffffffffffffffffff168273ffffffffffffffffffffffffffffffffffffffff1603612e01576040517f08c379a0000000000000000000000000000000000000000000000000000000008152600401612df890615082565b60405180910390fd5b612e0a816125fc565b15612e4a576040517f08c379a0000000000000000000000000000000000000000000000000000000008152600401612e41906150ee565b60405180910390fd5b612e58600083836001612872565b612e61816125fc565b15612ea1576040517f08c379a0000000000000000000000000000000000000000000000000000000008152600401612e98906150ee565b60405180910390fd5b6001600360008473ffffffffffffffffffffffffffffffffffffffff1673ffffffffffffffffffffffffffffffffffffffff16815260200190815260200160002060008282540192505081905550816002600083815260200190815260200160002060006101000a81548173ffffffffffffffffffffffffffffffffffffffff021916908373ffffffffffffffffffffffffffffffffffffffff160217905550808273ffffffffffffffffffffffffffffffffffffffff16600073ffffffffffffffffffffffffffffffffffffffff167fddf252ad1be2c89b69c2b068fc378daa952ba7f163c4a11628f55a4df523b3ef60405160405180910390a4612fab6000838360016129d0565b5050565b60018111156130cf57600073ffffffffffffffffffffffffffffffffffffffff168473ffffffffffffffffffffffffffffffffffffffff16146130435780600360008673ffffffffffffffffffffffffffffffffffffffff1673ffffffffffffffffffffffffffffffffffffffff168152602001908152602001600020600082825461303b9190614030565b925050819055505b600073ffffffffffffffffffffffffffffffffffffffff168373ffffffffffffffffffffffffffffffffffffffff16146130ce5780600360008573ffffffffffffffffffffffffffffffffffffffff1673ffffffffffffffffffffffffffffffffffffffff16815260200190815260200160002060008282546130c69190613c6c565b925050819055505b5b50505050565b6008805490506009600083815260200190815260200160002081905550600881908060018154018082558091505060019003906000526020600020016000909190919091505550565b6000600161312b84611658565b6131359190614030565b905060006007600084815260200190815260200160002054905081811461321a576000600660008673ffffffffffffffffffffffffffffffffffffffff1673ffffffffffffffffffffffffffffffffffffffff168152602001908152602001600020600084815260200190815260200160002054905080600660008773ffffffffffffffffffffffffffffffffffffffff1673ffffffffffffffffffffffffffffffffffffffff168152602001908152602001600020600084815260200190815260200160002081905550816007600083815260200190815260200160002081905550505b6007600084815260200190815260200160002060009055600660008573ffffffffffffffffffffffffffffffffffffffff1673ffffffffffffffffffffffffffffffffffffffff16815260200190815260200160002060008381526020019081526020016000206000905550505050565b6000600160088054905061329f9190614030565b90506000600960008481526020019081526020016000205490506000600883815481106132cf576132ce6142cc565b5b9060005260206000200154905080600883815481106132f1576132f06142cc565b5b9060005260206000200181905550816009600083815260200190815260200160002081905550600960008581526020019081526020016000206000905560088054806133405761333f61510e565b5b6001900381819060005260206000200160009055905550505050565b600061336783611658565b905081600660008573ffffffffffffffffffffffffffffffffffffffff1673ffffffffffffffffffffffffffffffffffffffff168152602001908152602001600020600083815260200190815260200160002081905550806007600084815260200190815260200160002081905550505050565b6000808273ffffffffffffffffffffffffffffffffffffffff163b119050919050565b60007f01ffc9a7000000000000000000000000000000000000000000000000000000007bffffffffffffffffffffffffffffffffffffffffffffffffffffffff1916827bffffffffffffffffffffffffffffffffffffffffffffffffffffffff1916149050919050565b6000604051905090565b600080fd5b600080fd5b60007fffffffff0000000000000000000000000000000000000000000000000000000082169050919050565b6134b18161347c565b81146134bc57600080fd5b50565b6000813590506134ce816134a8565b92915050565b6000602082840312156134ea576134e9613472565b5b60006134f8848285016134bf565b91505092915050565b60008115159050919050565b61351681613501565b82525050565b6000602082019050613531600083018461350d565b92915050565b600081519050919050565b600082825260208201905092915050565b60005b83811015613571578082015181840152602081019050613556565b60008484015250505050565b6000601f19601f8301169050919050565b600061359982613537565b6135a38185613542565b93506135b3818560208601613553565b6135bc8161357d565b840191505092915050565b600060208201905081810360008301526135e1818461358e565b905092915050565b6000819050919050565b6135fc816135e9565b811461360757600080fd5b50565b600081359050613619816135f3565b92915050565b60006020828403121561363557613634613472565b5b60006136438482850161360a565b91505092915050565b600073ffffffffffffffffffffffffffffffffffffffff82169050919050565b60006136778261364c565b9050919050565b6136878161366c565b82525050565b60006020820190506136a2600083018461367e565b92915050565b6136b18161366c565b81146136bc57600080fd5b50565b6000813590506136ce816136a8565b92915050565b600080604083850312156136eb576136ea613472565b5b60006136f9858286016136bf565b925050602061370a8582860161360a565b9150509250929050565b61371d81613501565b811461372857600080fd5b50565b60008135905061373a81613714565b92915050565b60006020828403121561375657613755613472565b5b60006137648482850161372b565b91505092915050565b613776816135e9565b82525050565b6000602082019050613791600083018461376d565b92915050565b6000806000606084860312156137b0576137af613472565b5b60006137be868287016136bf565b93505060206137cf868287016136bf565b92505060406137e08682870161360a565b9150509250925092565b6000806040838503121561380157613800613472565b5b600061380f8582860161360a565b92505060206138208582860161360a565b9150509250929050565b600060408201905061383f600083018561367e565b61384c602083018461376d565b9392505050565b60006bffffffffffffffffffffffff82169050919050565b61387481613853565b82525050565b600060208201905061388f600083018461386b565b92915050565b61389e81613853565b81146138a957600080fd5b50565b6000813590506138bb81613895565b92915050565b6000602082840312156138d7576138d6613472565b5b60006138e5848285016138ac565b91505092915050565b600080fd5b600080fd5b7f4e487b7100000000000000000000000000000000000000000000000000000000600052604160045260246000fd5b6139308261357d565b810181811067ffffffffffffffff8211171561394f5761394e6138f8565b5b80604052505050565b6000613962613468565b905061396e8282613927565b919050565b600067ffffffffffffffff82111561398e5761398d6138f8565b5b6139978261357d565b9050602081019050919050565b82818337600083830152505050565b60006139c66139c184613973565b613958565b9050828152602081018484840111156139e2576139e16138f3565b5b6139ed8482856139a4565b509392505050565b600082601f830112613a0a57613a096138ee565b5b8135613a1a8482602086016139b3565b91505092915050565b600060208284031215613a3957613a38613472565b5b600082013567ffffffffffffffff811115613a5757613a56613477565b5b613a63848285016139f5565b91505092915050565b600060208284031215613a8257613a81613472565b5b6000613a90848285016136bf565b91505092915050565b60008060408385031215613ab057613aaf613472565b5b6000613abe858286016136bf565b9250506020613acf8582860161372b565b9150509250929050565b600067ffffffffffffffff821115613af457613af36138f8565b5b613afd8261357d565b9050602081019050919050565b6000613b1d613b1884613ad9565b613958565b905082815260208101848484011115613b3957613b386138f3565b5b613b448482856139a4565b509392505050565b600082601f830112613b6157613b606138ee565b5b8135613b71848260208601613b0a565b91505092915050565b60008060008060808587031215613b9457613b93613472565b5b6000613ba2878288016136bf565b9450506020613bb3878288016136bf565b9350506040613bc48782880161360a565b925050606085013567ffffffffffffffff811115613be557613be4613477565b5b613bf187828801613b4c565b91505092959194509250565b60008060408385031215613c1457613c13613472565b5b6000613c22858286016136bf565b9250506020613c33858286016136bf565b9150509250929050565b7f4e487b7100000000000000000000000000000000000000000000000000000000600052601160045260246000fd5b6000613c77826135e9565b9150613c82836135e9565b9250828201905080821115613c9a57613c99613c3d565b5b92915050565b7f4e487b7100000000000000000000000000000000000000000000000000000000600052602260045260246000fd5b60006002820490506001821680613ce757607f821691505b602082108103613cfa57613cf9613ca0565b5b50919050565b7f4552433732313a20617070726f76616c20746f2063757272656e74206f776e6560008201527f7200000000000000000000000000000000000000000000000000000000000000602082015250565b6000613d5c602183613542565b9150613d6782613d00565b604082019050919050565b60006020820190508181036000830152613d8b81613d4f565b9050919050565b7f4552433732313a20617070726f76652063616c6c6572206973206e6f7420746f60008201527f6b656e206f776e6572206f7220617070726f76656420666f7220616c6c000000602082015250565b6000613dee603d83613542565b9150613df982613d92565b604082019050919050565b60006020820190508181036000830152613e1d81613de1565b9050919050565b7f436f6e74726163742063757272656e746c792070617573656400000000000000600082015250565b6000613e5a601983613542565b9150613e6582613e24565b602082019050919050565b60006020820190508181036000830152613e8981613e4d565b9050919050565b7f50726573616c6520686173206e6f7420656e6465642079657400000000000000600082015250565b6000613ec6601983613542565b9150613ed182613e90565b602082019050919050565b60006020820190508181036000830152613ef581613eb9565b9050919050565b7f457863656564206d6178696d756d2043727970746f204465767320737570706c60008201527f7900000000000000000000000000000000000000000000000000000000000000602082015250565b6000613f58602183613542565b9150613f6382613efc565b604082019050919050565b60006020820190508181036000830152613f8781613f4b565b9050919050565b6000613f99826135e9565b9150613fa4836135e9565b9250828202613fb2816135e9565b91508282048414831517613fc957613fc8613c3d565b5b5092915050565b7f4e487b7100000000000000000000000000000000000000000000000000000000600052601260045260246000fd5b600061400a826135e9565b9150614015836135e9565b92508261402557614024613fd0565b5b828204905092915050565b600061403b826135e9565b9150614046836135e9565b925082820390508181111561405e5761405d613c3d565b5b92915050565b600081905092915050565b50565b600061407f600083614064565b915061408a8261406f565b600082019050919050565b60006140a082614072565b9150819050919050565b7f4552433732313a207472616e736665722063616c6c6572206973206e6f74206f60008201527f776e6572206e6f7220617070726f766564000000000000000000000000000000602082015250565b6000614106603183613542565b9150614111826140aa565b604082019050919050565b60006020820190508181036000830152614135816140f9565b9050919050565b7f455243373231456e756d657261626c653a206f776e657220696e646578206f7560008201527f74206f6620626f756e6473000000000000000000000000000000000000000000602082015250565b6000614198602b83613542565b91506141a38261413c565b604082019050919050565b600060208201905081810360008301526141c78161418b565b9050919050565b7f4661696c656420746f2073656e64204574686572000000000000000000000000600082015250565b6000614204601483613542565b915061420f826141ce565b602082019050919050565b60006020820190508181036000830152614233816141f7565b9050919050565b7f455243373231456e756d657261626c653a20676c6f62616c20696e646578206f60008201527f7574206f6620626f756e64730000000000000000000000000000000000000000602082015250565b6000614296602c83613542565b91506142a18261423a565b604082019050919050565b600060208201905081810360008301526142c581614289565b9050919050565b7f4e487b7100000000000000000000000000000000000000000000000000000000600052603260045260246000fd5b60008190508160005260206000209050919050565b60006020601f8301049050919050565b600082821b905092915050565b60006008830261435d7fffffffffffffffffffffffffffffffffffffffffffffffffffffffffffffffff82614320565b6143678683614320565b95508019841693508086168417925050509392505050565b6000819050919050565b60006143a461439f61439a846135e9565b61437f565b6135e9565b9050919050565b6000819050919050565b6143be83614389565b6143d26143ca826143ab565b84845461432d565b825550505050565b600090565b6143e76143da565b6143f28184846143b5565b505050565b5b818110156144165761440b6000826143df565b6001810190506143f8565b5050565b601f82111561445b5761442c816142fb565b61443584614310565b81016020851015614444578190505b61445861445085614310565b8301826143f7565b50505b505050565b600082821c905092915050565b600061447e60001984600802614460565b1980831691505092915050565b6000614497838361446d565b9150826002028217905092915050565b6144b082613537565b67ffffffffffffffff8111156144c9576144c86138f8565b5b6144d38254613ccf565b6144de82828561441a565b600060209050601f83116001811461451157600084156144ff578287015190505b614509858261448b565b865550614571565b601f19841661451f866142fb565b60005b8281101561454757848901518255600182019150602085019450602081019050614522565b868310156145645784890151614560601f89168261446d565b8355505b6001600288020188555050505b505050505050565b7f50726573616c65206973206e6f742072756e6e696e6700000000000000000000600082015250565b60006145af601683613542565b91506145ba82614579565b602082019050919050565b600060208201905081810360008301526145de816145a2565b9050919050565b6000815190506145f481613714565b92915050565b6000602082840312156146105761460f613472565b5b600061461e848285016145e5565b91505092915050565b7f596f7520617265206e6f742077686974656c6973746564000000000000000000600082015250565b600061465d601783613542565b915061466882614627565b602082019050919050565b6000602082019050818103600083015261468c81614650565b9050919050565b7f4578636565646564206d6178696d756d2043727970746f20446576732073757060008201527f706c790000000000000000000000000000000000000000000000000000000000602082015250565b60006146ef602383613542565b91506146fa82614693565b604082019050919050565b6000602082019050818103600083015261471e816146e2565b9050919050565b7f45746865722073656e74206973206e6f7420636f727265637400000000000000600082015250565b600061475b601983613542565b915061476682614725565b602082019050919050565b6000602082019050818103600083015261478a8161474e565b9050919050565b7f4552433732313a20696e76616c696420746f6b656e2049440000000000000000600082015250565b60006147c7601883613542565b91506147d282614791565b602082019050919050565b600060208201905081810360008301526147f6816147ba565b9050919050565b7f4552433732313a2061646472657373207a65726f206973206e6f74206120766160008201527f6c6964206f776e65720000000000000000000000000000000000000000000000602082015250565b6000614859602983613542565b9150614864826147fd565b604082019050919050565b600060208201905081810360008301526148888161484c565b9050919050565b7f4552433732314d657461646174613a2055524920717565727920666f72206e6f60008201527f6e6578697374656e7420746f6b656e0000000000000000000000000000000000602082015250565b60006148eb602f83613542565b91506148f68261488f565b604082019050919050565b6000602082019050818103600083015261491a816148de565b9050919050565b600081905092915050565b600061493782613537565b6149418185614921565b9350614951818560208601613553565b80840191505092915050565b6000815461496a81613ccf565b6149748186614921565b9450600182166000811461498f57600181146149a4576149d7565b60ff19831686528115158202860193506149d7565b6149ad856142fb565b60005b838110156149cf578154818901526001820191506020810190506149b0565b838801955050505b50505092915050565b60006149ec828661492c565b91506149f8828561492c565b9150614a04828461495d565b9150819050949350505050565b7f4f776e61626c653a206e6577206f776e657220697320746865207a65726f206160008201527f6464726573730000000000000000000000000000000000000000000000000000602082015250565b6000614a6d602683613542565b9150614a7882614a11565b604082019050919050565b60006020820190508181036000830152614a9c81614a60565b9050919050565b7f4f776e61626c653a2063616c6c6572206973206e6f7420746865206f776e6572600082015250565b6000614ad9602083613542565b9150614ae482614aa3565b602082019050919050565b60006020820190508181036000830152614b0881614acc565b9050919050565b7f455243323938313a20726f79616c7479206665652077696c6c2065786365656460008201527f2073616c65507269636500000000000000000000000000000000000000000000602082015250565b6000614b6b602a83613542565b9150614b7682614b0f565b604082019050919050565b60006020820190508181036000830152614b9a81614b5e565b9050919050565b7f455243323938313a20496e76616c696420706172616d65746572730000000000600082015250565b6000614bd7601b83613542565b9150614be282614ba1565b602082019050919050565b60006020820190508181036000830152614c0681614bca565b9050919050565b7f4552433732313a207472616e736665722066726f6d20696e636f72726563742060008201527f6f776e6572000000000000000000000000000000000000000000000000000000602082015250565b6000614c69602583613542565b9150614c7482614c0d565b604082019050919050565b60006020820190508181036000830152614c9881614c5c565b9050919050565b7f4552433732313a207472616e7366657220746f20746865207a65726f2061646460008201527f7265737300000000000000000000000000000000000000000000000000000000602082015250565b6000614cfb602483613542565b9150614d0682614c9f565b604082019050919050565b60006020820190508181036000830152614d2a81614cee565b9050919050565b7f4552433732313a2063616c6c6572206973206e6f7420746f6b656e206f776e6560008201527f72206f7220617070726f76656400000000000000000000000000000000000000602082015250565b6000614d8d602d83613542565b9150614d9882614d31565b604082019050919050565b60006020820190508181036000830152614dbc81614d80565b9050919050565b7f4552433732313a20617070726f766520746f2063616c6c657200000000000000600082015250565b6000614df9601983613542565b9150614e0482614dc3565b602082019050919050565b60006020820190508181036000830152614e2881614dec565b9050919050565b7f4552433732313a207472616e7366657220746f206e6f6e20455243373231526560008201527f63656976657220696d706c656d656e7465720000000000000000000000000000602082015250565b6000614e8b603283613542565b9150614e9682614e2f565b604082019050919050565b60006020820190508181036000830152614eba81614e7e565b9050919050565b7f455243373231456e756d657261626c653a20636f6e736563757469766520747260008201527f616e7366657273206e6f7420737570706f727465640000000000000000000000602082015250565b6000614f1d603583613542565b9150614f2882614ec1565b604082019050919050565b60006020820190508181036000830152614f4c81614f10565b9050919050565b600081519050919050565b600082825260208201905092915050565b6000614f7a82614f53565b614f848185614f5e565b9350614f94818560208601613553565b614f9d8161357d565b840191505092915050565b6000608082019050614fbd600083018761367e565b614fca602083018661367e565b614fd7604083018561376d565b8181036060830152614fe98184614f6f565b905095945050505050565b600081519050615003816134a8565b92915050565b60006020828403121561501f5761501e613472565b5b600061502d84828501614ff4565b91505092915050565b7f4552433732313a206d696e7420746f20746865207a65726f2061646472657373600082015250565b600061506c602083613542565b915061507782615036565b602082019050919050565b6000602082019050818103600083015261509b8161505f565b9050919050565b7f4552433732313a20746f6b656e20616c7265616479206d696e74656400000000600082015250565b60006150d8601c83613542565b91506150e3826150a2565b602082019050919050565b60006020820190508181036000830152615107816150cb565b9050919050565b7f4e487b7100000000000000000000000000000000000000000000000000000000600052603160045260246000fdfe697066733a2f2f516d54706e6344633943394e5a774b457470695a6d43374e667443776233796256377865617043367962315a31732fa2646970667358221220df09133c6519a070491d5f3cc9270d17ba4a874eeee89f2ecfcb966586f9fc7a64736f6c63430008110033",
  "devdoc": {
    "kind": "dev",
    "methods": {
      "approve(address,uint256)": {
        "details": "See {IERC721-approve}."
      },
      "balanceOf(address)": {
        "details": "See {IERC721-balanceOf}."
      },
      "getApproved(uint256)": {
        "details": "See {IERC721-getApproved}."
      },
      "isApprovedForAll(address,address)": {
        "details": "See {IERC721-isApprovedForAll}."
      },
      "mint()": {
        "details": "mint allows a user to mint 1 NFT per transaction after the presale has ended."
      },
      "name()": {
        "details": "See {IERC721Metadata-name}."
      },
      "owner()": {
        "details": "Returns the address of the current owner."
      },
      "ownerOf(uint256)": {
        "details": "See {IERC721-ownerOf}."
      },
      "renounceOwnership()": {
        "details": "Leaves the contract without owner. It will not be possible to call `onlyOwner` functions anymore. Can only be called by the current owner. NOTE: Renouncing ownership will leave the contract without an owner, thereby removing any functionality that is only available to the owner."
      },
      "royaltyInfo(uint256,uint256)": {
        "details": "Returns how much royalty is owed and to whom, based on a sale price that may be denominated in any unit of exchange. The royalty amount is denominated and should be paid in that same unit of exchange."
      },
      "setApprovalForAll(address,bool)": {
        "details": "See {IERC721-setApprovalForAll}."
      },
      "symbol()": {
        "details": "See {IERC721Metadata-symbol}."
      },
      "tokenByIndex(uint256)": {
        "details": "See {IERC721Enumerable-tokenByIndex}."
      },
      "tokenOfOwnerByIndex(address,uint256)": {
        "details": "See {IERC721Enumerable-tokenOfOwnerByIndex}."
      },
      "tokenURI(uint256)": {
        "details": "See {IERC721Metadata-tokenURI}."
      },
      "totalSupply()": {
        "details": "See {IERC721Enumerable-totalSupply}."
      },
      "transferOwnership(address)": {
        "details": "Transfers ownership of the contract to a new account (`newOwner`). Can only be called by the current owner."
      }
    },
    "version": 1
  },
  "userdoc": {
    "kind": "user",
    "methods": {},
    "version": 1
  },
  "storageLayout": {
    "storage": [
      {
        "astId": 157,
        "contract": "contracts/IG.sol:IG",
        "label": "_name",
        "offset": 0,
        "slot": "0",
        "type": "t_string_storage"
      },
      {
        "astId": 159,
        "contract": "contracts/IG.sol:IG",
        "label": "_symbol",
        "offset": 0,
        "slot": "1",
        "type": "t_string_storage"
      },
      {
        "astId": 163,
        "contract": "contracts/IG.sol:IG",
        "label": "_owners",
        "offset": 0,
        "slot": "2",
        "type": "t_mapping(t_uint256,t_address)"
      },
      {
        "astId": 167,
        "contract": "contracts/IG.sol:IG",
        "label": "_balances",
        "offset": 0,
        "slot": "3",
        "type": "t_mapping(t_address,t_uint256)"
      },
      {
        "astId": 171,
        "contract": "contracts/IG.sol:IG",
        "label": "_tokenApprovals",
        "offset": 0,
        "slot": "4",
        "type": "t_mapping(t_uint256,t_address)"
      },
      {
        "astId": 177,
        "contract": "contracts/IG.sol:IG",
        "label": "_operatorApprovals",
        "offset": 0,
        "slot": "5",
        "type": "t_mapping(t_address,t_mapping(t_address,t_bool))"
      },
      {
        "astId": 1225,
        "contract": "contracts/IG.sol:IG",
        "label": "_ownedTokens",
        "offset": 0,
        "slot": "6",
        "type": "t_mapping(t_address,t_mapping(t_uint256,t_uint256))"
      },
      {
        "astId": 1229,
        "contract": "contracts/IG.sol:IG",
        "label": "_ownedTokensIndex",
        "offset": 0,
        "slot": "7",
        "type": "t_mapping(t_uint256,t_uint256)"
      },
      {
        "astId": 1232,
        "contract": "contracts/IG.sol:IG",
        "label": "_allTokens",
        "offset": 0,
        "slot": "8",
        "type": "t_array(t_uint256)dyn_storage"
      },
      {
        "astId": 1236,
        "contract": "contracts/IG.sol:IG",
        "label": "_allTokensIndex",
        "offset": 0,
        "slot": "9",
        "type": "t_mapping(t_uint256,t_uint256)"
      },
      {
        "astId": 1639,
        "contract": "contracts/IG.sol:IG",
        "label": "_defaultRoyaltyInfo",
        "offset": 0,
        "slot": "10",
        "type": "t_struct(RoyaltyInfo)1636_storage"
      },
      {
        "astId": 1644,
        "contract": "contracts/IG.sol:IG",
        "label": "_tokenRoyaltyInfo",
        "offset": 0,
        "slot": "11",
        "type": "t_mapping(t_uint256,t_struct(RoyaltyInfo)1636_storage)"
      },
      {
        "astId": 7,
        "contract": "contracts/IG.sol:IG",
        "label": "_owner",
        "offset": 0,
        "slot": "12",
        "type": "t_address"
      },
      {
        "astId": 3266,
        "contract": "contracts/IG.sol:IG",
        "label": "baseExtension",
        "offset": 0,
        "slot": "13",
        "type": "t_string_storage"
      },
      {
        "astId": 3268,
        "contract": "contracts/IG.sol:IG",
        "label": "baseURI",
        "offset": 0,
        "slot": "14",
        "type": "t_string_storage"
      },
      {
        "astId": 3270,
        "contract": "contracts/IG.sol:IG",
        "label": "artist",
        "offset": 0,
        "slot": "15",
        "type": "t_address"
      },
      {
        "astId": 3272,
        "contract": "contracts/IG.sol:IG",
        "label": "royalityFee",
        "offset": 20,
        "slot": "15",
        "type": "t_uint96"
      },
      {
        "astId": 3283,
        "contract": "contracts/IG.sol:IG",
        "label": "_price",
        "offset": 0,
        "slot": "16",
        "type": "t_uint256"
      },
      {
        "astId": 3285,
        "contract": "contracts/IG.sol:IG",
        "label": "_paused",
        "offset": 0,
        "slot": "17",
        "type": "t_bool"
      },
      {
        "astId": 3288,
        "contract": "contracts/IG.sol:IG",
        "label": "maxTokenIds",
        "offset": 0,
        "slot": "18",
        "type": "t_uint256"
      },
      {
        "astId": 3290,
        "contract": "contracts/IG.sol:IG",
        "label": "tokenIds",
        "offset": 0,
        "slot": "19",
        "type": "t_uint256"
      },
      {
        "astId": 3293,
        "contract": "contracts/IG.sol:IG",
        "label": "whitelist",
        "offset": 0,
        "slot": "20",
        "type": "t_contract(IWhitelist)3827"
      },
      {
        "astId": 3295,
        "contract": "contracts/IG.sol:IG",
        "label": "presaleStarted",
        "offset": 20,
        "slot": "20",
        "type": "t_bool"
      },
      {
        "astId": 3297,
        "contract": "contracts/IG.sol:IG",
        "label": "presaleEnded",
        "offset": 0,
        "slot": "21",
        "type": "t_uint256"
      }
    ],
    "types": {
      "t_address": {
        "encoding": "inplace",
        "label": "address",
        "numberOfBytes": "20"
      },
      "t_array(t_uint256)dyn_storage": {
        "base": "t_uint256",
        "encoding": "dynamic_array",
        "label": "uint256[]",
        "numberOfBytes": "32"
      },
      "t_bool": {
        "encoding": "inplace",
        "label": "bool",
        "numberOfBytes": "1"
      },
      "t_contract(IWhitelist)3827": {
        "encoding": "inplace",
        "label": "contract IWhitelist",
        "numberOfBytes": "20"
      },
      "t_mapping(t_address,t_bool)": {
        "encoding": "mapping",
        "key": "t_address",
        "label": "mapping(address => bool)",
        "numberOfBytes": "32",
        "value": "t_bool"
      },
      "t_mapping(t_address,t_mapping(t_address,t_bool))": {
        "encoding": "mapping",
        "key": "t_address",
        "label": "mapping(address => mapping(address => bool))",
        "numberOfBytes": "32",
        "value": "t_mapping(t_address,t_bool)"
      },
      "t_mapping(t_address,t_mapping(t_uint256,t_uint256))": {
        "encoding": "mapping",
        "key": "t_address",
        "label": "mapping(address => mapping(uint256 => uint256))",
        "numberOfBytes": "32",
        "value": "t_mapping(t_uint256,t_uint256)"
      },
      "t_mapping(t_address,t_uint256)": {
        "encoding": "mapping",
        "key": "t_address",
        "label": "mapping(address => uint256)",
        "numberOfBytes": "32",
        "value": "t_uint256"
      },
      "t_mapping(t_uint256,t_address)": {
        "encoding": "mapping",
        "key": "t_uint256",
        "label": "mapping(uint256 => address)",
        "numberOfBytes": "32",
        "value": "t_address"
      },
      "t_mapping(t_uint256,t_struct(RoyaltyInfo)1636_storage)": {
        "encoding": "mapping",
        "key": "t_uint256",
        "label": "mapping(uint256 => struct ERC2981.RoyaltyInfo)",
        "numberOfBytes": "32",
        "value": "t_struct(RoyaltyInfo)1636_storage"
      },
      "t_mapping(t_uint256,t_uint256)": {
        "encoding": "mapping",
        "key": "t_uint256",
        "label": "mapping(uint256 => uint256)",
        "numberOfBytes": "32",
        "value": "t_uint256"
      },
      "t_string_storage": {
        "encoding": "bytes",
        "label": "string",
        "numberOfBytes": "32"
      },
      "t_struct(RoyaltyInfo)1636_storage": {
        "encoding": "inplace",
        "label": "struct ERC2981.RoyaltyInfo",
        "members": [
          {
            "astId": 1633,
            "contract": "contracts/IG.sol:IG",
            "label": "receiver",
            "offset": 0,
            "slot": "0",
            "type": "t_address"
          },
          {
            "astId": 1635,
            "contract": "contracts/IG.sol:IG",
            "label": "royaltyFraction",
            "offset": 20,
            "slot": "0",
            "type": "t_uint96"
          }
        ],
        "numberOfBytes": "32"
      },
      "t_uint256": {
        "encoding": "inplace",
        "label": "uint256",
        "numberOfBytes": "32"
      },
      "t_uint96": {
        "encoding": "inplace",
        "label": "uint96",
        "numberOfBytes": "12"
      }
    }
  }
}